:020000040800F2
:10000000000003202D2300087D2300087D23000825
:100010007D2300087D2300087D23000800000000E8
:100020000000000000000000000000007D23000828
:100030007D230008000000007D23000857130008FE
:100040007D2300087D2300087D2300087D23000810
:100050007D2300087D230008B5210008BB2100088E
:10006000C1210008C7210008CD2100087D23000818
:100070007D2300087D2300087D2300087D230008E0
:100080007D2300087D2300087D2300087D230008D0
:100090007D2300087D2300087D230008D32100086C
:1000A000DD29000815290008F12900083929000870
:1000B0004D29000861290008752900087D230008E2
:1000C0007D2300087D2300087D2300087D23000890
:1000D0007D230008ED1F0008052000081D200008F2
:1000E000E92100080D1600087D230008052A0008F4
:1000F000C5290008192A0008D92900087D2300080D
:100100007D2300087D230008892900087D2300083D
:1001100039200008512000089D290008B129000855
:100120007D2300087D2300087D2300087D2300082F
:100130007D2300087D2300087D2300087D2300081F
:100140007D2300087D2300087D2300087D2300080F
:100150007D2300087D2300087D2300086920000816
:100160007D2300087D2300087D2300087D230008EF
:100170007D2300087D2300087D2300080000000087
:100180007D2300087D2300088120000899200008B5
:100190007D2300087D2300087D2300087D230008BF
:0C01A00000000000000000007D230008AB
:1001AC00034613F8012B002AFBD1181A01387047AB
:1001BC0053B94AB9002908BF00281CBF4FF0FF31C2
:1001CC004FF0FF3000F00CB8ADF1080C6DE904CE27
:1001DC0002F00AFEDDF804E0DDE9022304B070470A
:1001EC00704700BF10B5054C237833B9044B13B1DD
:1001FC000448AFF300800123237010BDA000002041
:10020C00000000005431000808B5034B1BB1034932
:10021C000348AFF3008008BD00000000A4000020DC
:10022C005431000808B50121212002F0A3F8BDE8E3
:10023C000840034806224FF4165102F011BA00BFD1
:10024C004402002010B50D4C0121212002F0ECF8E5
:10025C000B49204602F05CFC4FF47A7002F008F96E
:10026C000021212002F0E0F82046064902F050FC63
:10027C00BDE810404FF47A7002F0FAB84402002046
:10028C006C3100087231000810B50A4C2268131842
:10029C00EFF308818B4206D9074B0C221A604FF002
:1002AC00FF32104610BD05490548091A8B42F3D29E
:1002BC002360F6E700000020B403002000000320B8
:1002CC0000040000FEE70000024B16221A604FF0FB
:1002DC00FF307047B40300200120704770470000C6
:1002EC0038B50E4A0E4B054618784FF47A73B3FBAB
:1002FC00F0F31068B0FBF3F000F0A8F8044658B91E
:10030C000F2D09D8024629464FF0FF3000F04AF86D
:10031C00044B20461D6038BD0120FCE7380000204E
:10032C00040000200800002008B50B4B1A6842F4AA
:10033C0000721A601A6842F480621A601A6842F4F9
:10034C0080721A60032000F01BF80020FFF7C8FF32
:10035C00FFF7C4FF002008BD003C0240034A044BD9
:10036C0011681B780B441360704700BFB00300206A
:10037C0004000020014B1868704700BFB003002038
:10038C000749CA6822F4E0620302120403F4E06332
:10039C00120C134343F0BF6343F40033CB6070473C
:1003AC0000ED00E0164B30B5DC68C4F30224C4F158
:1003BC000705231D042D28BF0425062B4FF0FF3302
:1003CC008CBF033C002403FA05F521EA0501A34088
:1003DC0022EA0302A140002841EA0203ACBF00F16B
:1003EC006040084A4FEA0313B8BF00F00F00DBB2BD
:1003FC00AABF00F56140135480F8003330BD00BF34
:10040C0000ED00E014ED00E0002808DB42090123B8
:10041C0000F01F0003FA00F0014B43F82200704774
:10042C0000E100E000280DDB4309012200F01F0071
:10043C0002FA00F02033044A42F82300BFF34F8F36
:10044C00BFF36F8F704700BF00E100E00138B0F1DF
:10045C00807F0AD2064B074A5860F02182F823109D
:10046C000020072298601A6070470120704700BF77
:10047C0010E000E000ED00E0002809DB4309012258
:10048C0000F01F0002FA00F06033024A42F8230029
:10049C00704700BF00E100E0704708B5FFF7FCFFB4
:1004AC0008BD10B5044640B10223037101F0FAFDFA
:1004BC00002020616071207110BD0120FCE710B597
:1004CC0004680122236802FA01F123EA0103236084
:1004DC000271002010BD90F83530022B03D0802320
:1004EC004365012070470268052380F83530136896
:1004FC0023F001031360002070470000044A516987
:10050C00014208B502D0506101F038FE08BD00BFB1
:10051C00003C014037B500230193184B184D1A6C61
:10052C0042F080521A641B6C03F080530193019BC0
:10053C00144B01221A60FFF71DFF04466B68DA03A7
:10054C000BD5114B0E4D01221A60FFF713FF044619
:10055C006B689B030AD5002006E0FFF70BFF001B1E
:10056C00B0F57A7FEAD9032003B030BDFFF702FF64
:10057C00001BB0F57A7FEBD9F5E700BF00380240DD
:10058C000070004040000E4244000E422DE9F34141
:10059C00044640B30368DD0710D4236898075ED483
:1005AC0023681A0700F1A08023685B0700F1BE8066
:1005BC00A069002840F01F8100202BE0A64B9A6810
:1005CC0002F00C02042A07D09A6802F00C02082AE6
:1005DC000BD15A68510208D59F4B1B689A03DCD586
:1005EC006368002BD9D1012014E06268B2F5803F1A
:1005FC0013D11A6842F480321A60FFF7BBFE964E94
:10060C00054633689B03C8D4FFF7B4FE401B64282F
:10061C00F7D9032002B0BDE8F0818F4DB2F5A02FC1
:10062C002B6807D143F480232B602B6843F4803371
:10063C002B60E2E723F480332B602B6823F48023B8
:10064C002B60002AD9D1FFF795FE06462B689F0335
:10065C00A3D5FFF78FFE801B6428F7D9D9E77E4B13
:10066C009A6812F00C0F07D09A6802F00C02082A54
:10067C0011D15B685E020ED4774B1A68950702D5D0
:10068C00E268012AAFD11A68216922F0F80242EA25
:10069C00C1021A6084E7E268704BB2B101221A60A1
:1006AC00FFF768FE6C4D06462B68980707D52B683C
:1006BC00226923F0F80343EAC2032B6070E7FFF7CB
:1006CC0059FE801B0228EFD9A3E71A60FFF752FEF0
:1006DC00614E0546336899077FF562AFFFF74AFE16
:1006EC00401B0228F6D994E762695D4B7AB101226E
:1006FC001A60FFF73FFE584E0546736F9F073FF594
:10070C0053AFFFF737FE401B0228F6D981E71A607A
:10071C00FFF730FE504E0546736F98077FF544AFD8
:10072C00FFF728FE401B0228F6D972E74A4B1A6CD9
:10073C0012F0805228D101921A6C42F080521A6445
:10074C001B6C03F080530193019B0127454D2B68D3
:10075C00D9051BD5A368404D012B27D12B6F43F036
:10076C0001032B67FFF706FE3B4E054641F2883826
:10077C00336F9B0739D5002F3FF41AAF364A136CF1
:10078C0023F08053136413E70027DFE72B6843F44F
:10079C0080732B60FFF7EEFD06462B68DA05D9D483
:1007AC00FFF7E8FD801B0228F7D932E7052B04D1AF
:1007BC002B6F43F004032B67D0E72A6F22F0010262
:1007CC002A672A6F22F004022A67002BCAD1FFF78E
:1007DC00D1FD41F2883806462B6F9807CBD5FFF731
:1007EC00C9FD801B4045F7D913E7FFF7C3FD401B3C
:1007FC004045BDD90DE7184DAB6803F00C03082B31
:10080C0047D0194E00230228336035D1FFF7B2FDD3
:10081C0007462B68990129D4D4E907321343626A3D
:10082C0043EA8213E26A43EA0263A26A5208013A7B
:10083C0043EA02436B6001233360FFF79BFD064DD7
:10084C0004462B689A013FF5B7AEFFF793FD001BEA
:10085C000228F6D9DDE600BF00380240000047420E
:10086C00800E47420070004060004742FFF782FD57
:10087C00C01B0228CDD9CCE6FFF77CFD04462B68C3
:10088C009B017FF599AEFFF775FD001B0228F6D989
:10089C00BFE601283FF4BEAEAB68E26903F4800109
:1008AC0091427FF4A0AE216A03F03F028A427FF4AA
:1008BC009AAE616A47F6C0721A408A427FF493AED0
:1008CC00A16A03F440328A427FF48DAEE26A03F0EF
:1008DC00706393423FF470AE85E600BF134908B5D0
:1008EC008B6803F00C03042B1CD0082B1CD14A681A
:1008FC004B68496813F4800314BF0D480D48C1F3CD
:10090C00881118BF002302F03F02A1FB0001FFF782
:10091C004FFC064B5B68C3F3014301335B00B0FB38
:10092C00F3F008BD0248FCE70248FAE70038024041
:10093C0000127A000024F4002DE9F0410D46044623
:10094C0010B90120BDE8F081444B1A6802F00F0287
:10095C008A4228D3226897072DD4D00741D43F4B25
:10096C001A6802F00F02AA4266D8226851076CD4AA
:10097C00130707D53A4A2169936823F4604343EA85
:10098C00C1039360FFF7AAFF354B364A9B68C3F34C
:10099C000313D35CD840344B1860344B1868FFF702
:1009AC009FFC0020CEE7CAB21A701B6803F00F033D
:1009BC008B42C6D1CEE72A4B12F0040F1EBF9968AA
:1009CC0041F4E0519960160742BF996841F46041C7
:1009DC0099602349A0688B6823F0F00303438B6074
:1009EC00BBE762681E4B012A1CD11B6813F4003F45
:1009FC00A7D01B4EB36823F003031343B360FFF778
:100A0C00B9FC41F288380746B368626803F00C03FE
:100A1C00B3EB820FA3D0FFF7ADFCC01B4045F3D95D
:100A2C0003208FE7911E01291B6802D813F0007F69
:100A3C00DEE713F0020FDBE7EAB21A701B6803F073
:100A4C000F03AB427FF47DAF8FE70549E0688B68FD
:100A5C0023F4E05303438B608AE700BF003C024061
:100A6C000038024030320008380000200800002016
:100A7C00044B054A9B68C3F38223D35C034A10687A
:100A8C00D84070470038024040320008380000203F
:100A9C00044B054A9B68C3F34233D35C034A10688A
:100AAC00D84070470038024040320008380000201F
:100ABC0003689A68D20410B504460AD5DB68D905D8
:100ACC0007D500F091FD2268D368DBB263F4C073E4
:100ADC00D36023689A6892040BD5DB689B0508D514
:100AEC00204600F00FF82268D368DBB263F4207361
:100AFC00D360034B4FF400325A610123637710BD6E
:100B0C00003C014070477047704703681A699107B1
:100B1C0010B504460ED5DA6892070BD56FF00202B9
:100B2C001A61012202779B699B0777D001F0C2FF03
:100B3C000023237723681A69500710D5DA68510708
:100B4C000DD56FF004021A61022222779B6913F40F
:100B5C00407F204668D001F0ADFF00232377236847
:100B6C001A6912070FD5DA6810070CD56FF0080256
:100B7C001A6104222277DB69990720465AD001F0CA
:100B8C0099FF0023237723681A69D20610D5DA68F7
:100B9C00D0060DD56FF010021A6108222277DB699E
:100BAC0013F4407F20464BD001F084FF00232377C1
:100BBC0023681A69D10708D5DA68D20705D56FF012
:100BCC0001021A61204601F049FF23681A691006D8
:100BDC0008D5DA68110605D56FF080021A61204637
:100BEC0000F0B7F823681A69520608D5DA6850067F
:100BFC0005D56FF040021A612046FFF785FF236888
:100C0C001A69910622D5DA6892061FD56FF0200278
:100C1C0020461A61BDE8104000F09AB801F048FF78
:100C2C002046FFF770FF83E701F042FF2046FFF7F5
:100C3C006AFF92E701F03CFF2046FFF764FFA0E754
:100C4C0001F036FF2046FFF75EFFAFE710BD000056
:100C5C00304A0368904212D0B0F1804F0FD0A2F509
:100C6C007C4290420BD002F58062904207D002F594
:100C7C008062904203D002F57842904219D14A68C2
:100C8C0023F070031343234A904229D0B0F1804FD4
:100C9C0026D0A2F57C42904222D002F5806290428E
:100CAC001ED002F5806290421AD002F57842904232
:100CBC0016D0194A904213D002F5806290420FD0A0
:100CCC0002F5806290420BD0A2F59832904207D088
:100CDC0002F58062904203D002F58062904203D10B
:100CEC00CA6823F4407313434A6923F08003134307
:100CFC0003608B68C3620B688362064B984203D017
:100D0C0003F58063984201D10B69036301234361AE
:100D1C00704700BF000001400040014010B5044680
:100D2C00A0B190F83D3003F0FF021BB980F83C20D5
:100D3C0000F0E8FE0223206884F83D30211DFFF707
:100D4C0087FF012384F83D30002010BD0120FCE713
:100D5C00704770470368DA6822F49072DA605A6957
:100D6C0022F001025A61202380F83A3070470000CB
:100D7C0038B50368C1681A69044622F440520A4324
:100D8C001A612569A268D968C0692A43656921F48A
:100D9C0016412A4321F00C0102430A43DA605A69D6
:100DAC00A16922F440720A43B0F5004F5A61254AFA
:100DBC0028D1934203D002F5806293421FD1FFF7F2
:100DCC0067FE6268002392184FF019015B41A0FB8B
:100DDC000101FFF7EDF96421B0FBF1F501FB1503FF
:100DEC00DB003233B3FBF1F303F007025B00216845
:100DFC0002EB051203F4F87313448B6038BDFFF754
:100E0C0037FEDEE7934202D00F4A934217D1FFF729
:100E1C003FFE636819219A00A0FB01019B0FFFF7AD
:100E2C00C7F96422B0FBF2F102FB110324681B0129
:100E3C003233B3FBF2F303EB0113A360DEE7FFF7EE
:100E4C0017FEE6E70010014000140140704710B592
:100E5C00044640B390F8393003F0FF021BB980F818
:100E6C003820FFF7F3FF2268242384F83930D36845
:100E7C0023F40053D3602046FFF77AFF23681A69E6
:100E8C0022F490421A615A6922F02A025A61DA68F5
:100E9C0042F40052DA6000202023E06384F83930F9
:100EAC0084F83A3010BD0120FCE710B5044660B35D
:100EBC0090F8393003F0FF021BB980F83820FFF7A7
:100ECC00C5FF2268242384F83930D36823F40053F7
:100EDC00D3602046FFF74CFF23681A6922F4904236
:100EEC001A615A6922F022025A615A6942F00802C8
:100EFC005A61DA6842F40052DA6000202023E06381
:100F0C0084F8393084F83A3010BD0120FCE790F8B1
:100F1C003930202B18D1A9B1A2B190F83830012B5F
:100F2C0012D0C28401628284016800232122C3632F
:100F3C0080F8383080F83920CA6842F08002CA60E4
:100F4C0018467047012070470220704790F83A30DD
:100F5C00202B20D1E9B1E2B190F83830012B1AD016
:100F6C00C285828500232222C36380F83A2002685E
:100F7C0080F838308162D16841F48071D160516958
:100F8C0041F001015161D16841F02001D160184656
:100F9C007047012070470220704710B590F83A3026
:100FAC00222B33D181680469836A0268B1F5805FB2
:100FBC0023D15268ECB9C2F3080223F8022B8362E6
:100FCC00C48D013CA4B2C4858CB90368DA6822F0E4
:100FDC002002DA60DA6822F48072DA605A6922F050
:100FEC0001025A61202380F83A3000F0A5FF00205E
:100FFC000DE0D2B223F8012BE1E7591C5268816253
:10100C000CB91A70DCE702F07F02FAE7022010BD7F
:10101C0003681A68D96870B516075D69044607D16C
:10102C0096065CD58D065AD5BDE87040FFF7B5BF66
:10103C0005F0010001F49075054350D0D60705D595
:10104C00CD0542BFE36B43F00103E363530704D5C3
:10105C0018B1E36B43F00203E363960704D518B1B0
:10106C00E36B43F00403E363150707D501F020039A
:10107C0003431EBFE36B43F00803E363E36B4BB323
:10108C00900604D5890602D52046FFF786FF236813
:10109C005B69E56B03F0400305F008051D43204632
:1010AC0019D0FFF757FE23685A6952060FD55A69B3
:1010BC00606B22F040025A6148B1264B0365FFF782
:1010CC000AFA38B1606BBDE87040036D18472046D2
:1010DC0000F048FF70BD00F045FFE563FAE7160627
:1010EC0028D50D0626D594F83920212AF2D1A168ED
:1010FC00226AB1F5805F18D11188C1F308015960DB
:10110C00216981B902322262E28C013A92B2E28404
:10111C00002ADFD1DA6822F08002DA60DA6842F065
:10112C004002DA60D6E70132EDE7511C21621278F9
:10113C005A60E9E75006CDD54A06CBD5DA6822F0DD
:10114C004002DA60202384F83930204600F0F7FEA4
:10115C00C0E700BF6511000808B5806B0023C3858C
:10116C00C38400F0FFFE08BD90F83830012B11D07D
:10117C000268242380F83930D36823F00C0343F041
:10118C000803D360202380F83930002380F83830EE
:10119C00184670470220704790F83830012B11D058
:1011AC000268242380F83930D36823F00C0343F011
:1011BC000403D360202380F83930002380F83830C2
:1011CC00184670470220704790F8392090F83A0082
:1011DC00104370478CB000230A2800F29880DFE897
:1011EC0000F00614212E3B4855626F7C8900019358
:1011FC00484B49481A6B42F001021A631B6B03F00F
:10120C0001030193019B0CB070470293414B43487F
:10121C001A6B42F002021A631B6B03F00203029377
:10122C00029BF0E703933B4B3D481A6B42F00402E0
:10123C001A631B6B03F004030393039BE3E7049310
:10124C00344B38481A6B42F008021A631B6B03F0DC
:10125C0008030493049BD6E705932E4B32481A6B74
:10126C0042F010021A631B6B03F010030593059BED
:10127C00C9E70693274B2D481A6B42F020021A63DC
:10128C001B6B03F020030693069BBCE70793214BD3
:10129C0027481A6B42F040021A631B6B03F04003A1
:1012AC000793079BAFE708931A4B22481A6B42F03F
:1012BC0080021A631B6B03F080030893089BA2E760
:1012CC000993144B1C481A6B42F480721A631B6B03
:1012DC0003F480730993099B95E70A930D4B174808
:1012EC001A6B42F400721A631B6B03F400730A93BB
:1012FC000A9B88E70B93074B11481A6B42F48062E8
:10130C001A631B6B03F480630B930B9B7BE700202E
:10131C0079E700BF003802400000024000040240A0
:10132C0000080240000C0240001002400014024071
:10133C0000180240001C0240002002400024024021
:10134C0000280240FFF716B8704708B5FFF706F8FB
:10135C00FFF7A3F8FFF7F8FF08BD00000B4BDA68A6
:10136C00D2015EBFDA6842F08072DA60084B00226C
:10137C005A601A6842F001021A6000BF00BF00BF39
:10138C005868B0FA80F04009704700BFF0ED00E0FB
:10139C00001000E008B5FFF7E1FFFEF7C5FFBDE860
:1013AC00084000F079BF30B5436891FAA1F4B4FA63
:1013BC0084F50124AC4023EA040391FAA1F1B1FABB
:1013CC0081F18A401343436030BD30B5C46891FA53
:1013DC00A1F3B3FA83F303255B0005FA03F324EAC4
:1013EC00030391FAA1F1B1FA81F149008A40134348
:1013FC00C36030BD431C04D00C3131F90C3C5A1C79
:10140C0001D100207047834201F10C01F5D101207C
:10141C007047000000F00F02484B2DE9F041C0F37B
:10142C0003141FFA80F8013053F822500E4601F0D5
:10143C00070703D14248482100F0E8F82046FFF79F
:10144C00C9FE8368044695FAA5F2B2FA82F203212A
:10145C00520001FA02F223EA020195FAA5F3B3FA5B
:10146C0083F35A00032393400B438360032F35D837
:10147C00DFE807F01D1D021D18F0080FC6F3062249
:10148C0017D0406A2B0A93FAA3F1B1FA81F14FF00D
:10149C000F0C89000CFA01F120EA010193FAA3F375
:1014AC00B3FA83F39B0002FA03F30B4363623B46EC
:1014BC0019E0036A95FAA5F1B1FA81F10F208900C0
:1014CC0000FA01F123EA010195FAA5F3B3FA83F3CB
:1014DC009B0002FA03F30B432362E8E718488D21C3
:1014EC0000F094F80023216895FAA5F2B2FA82F282
:1014FC000320520000FA02F221EA020195FAA5F249
:10150C00B2FA82F252009340013F0B43012F236049
:10151C0007D816F0080218BF012229462046FFF70B
:10152C0042FFC6F30112012A02D0022A18BF002280
:10153C0029462046BDE8F041FFF747BFF0310008CF
:10154C007C310008431C06D17047834202D1896864
:10155C00FFF760BF0C31B1F900305A1CF5D10248CD
:10156C00B92100F053B800BF7C310008B1F900304C
:10157C005A1C01D100207047834201D14868704742
:10158C000C31F3E7431C01D0FFF7F0BF002070478C
:10159C004B6813B94FF0FF307047834202D1B1F959
:1015AC00000070470C31F3E708B1FFF7F1BF4FF0C3
:1015BC00FF307047B1F900305A1C01D11846704702
:1015CC00834201D1886870470C31F3E7431C01D08A
:1015DC00FFF7F0BF7047884204D018B100290CBF48
:1015EC000146002108467047034B1B6813B1034AA0
:1015FC0010681847704700BFBC000020E0000020B6
:10160C000148FFF755BA00BFC0000020FEE70000FC
:10161C000F49D1F8883043F47003C1F888300D4B72
:10162C001A68002042F001021A6098601A6822F0D1
:10163C00847222F480321A60074A5A601A6822F4C3
:10164C0080221A60D8604FF000638B60704700BF37
:10165C0000ED00E0003802401030002404387047E0
:10166C0003686D4A93428EB02AD1002200926B4AD5
:10167C00516C41F001015164526C02F00102009274
:10168C00009A674A93425DD100220592634A116C1D
:10169C0041F010011164126C02F010020592059ACF
:1016AC00604A93425DD100230A935C4B5A6C42F41E
:1016BC0080225A645B6C03F480230A930A9B26E015
:1016CC00B3F1804F25D0584A93422FD0574A9342BA
:1016DC0057D0574A9342D4D1002204924F4A116CEE
:1016EC0041F008011164126C02F008020492049A91
:1016FC00504A9342D4D100230993484B5A6C42F47C
:10170C0000325A645B6C03F400330993099B0EB0EE
:10171C00704700220192414A116C41F001011164A1
:10172C00126C02F001020192019AAAE700220292C5
:10173C003A4A116C41F002011164126C02F002027F
:10174C000292029A3C4A934227D100220692334AD3
:10175C00116C41F020011164126C02F0200206920F
:10176C00069A364A934246D100230B932B4B1A6CA4
:10177C0042F040021A641B6C03F040030B930B9B6A
:10178C00C5E700220392254A116C41F00401116453
:10179C00126C02F004020392039A294A93421ED05F
:1017AC00284A9342A4D1002208921C4A516C41F45D
:1017BC0080315164526C02F480320892089A224AA9
:1017CC009342A4D100230D93144B1A6C42F48072F3
:1017DC001A641B6C03F480730D930D9B97E7002226
:1017EC0007920E4A516C41F002015164526C02F0A6
:1017FC0002020792079A154A9342E0D100230C93F8
:10180C00064B1A6C42F080021A641B6C03F08003C6
:10181C000C930C9B7BE700BF00000140003802409A
:10182C000010004000480140000400400008004047
:10183C00000C00400044014000140040001800401F
:10184C00000401400040014000200040001C00400A
:10185C0003683A4A934214D139494A6C22F0010286
:10186C004A64384A934231D135490A6C22F010024D
:10187C000A64354A934231D1314A536C23F48023A4
:10188C0017E0B3F1804F16D0304A934219D0304A4A
:10189C0093422CD02F4A9342E3D129490A6C22F06F
:1018AC0008020A642C4A9342E3D1254A536C23F470
:1018BC0000335364704722490A6C22F001020A6417
:1018CC00CFE71F490A6C22F002020A64234A9342B2
:1018DC0012D11B490A6C22F020020A64204A93425E
:1018EC001ED1174A136C23F040031364704714493C
:1018FC000A6C22F004020A641A4A93420BD01A4A68
:10190C009342CFD10E494A6C22F480324A64174A72
:10191C0093420DD070470A494A6C22F002024A6485
:10192C00134A9342F3D1064A136C23F08003DCE78D
:10193C00034A136C23F48073D7E700BF0000014007
:10194C0000380240001000400048014000040040F4
:10195C0000080040000C004000440140001400400E
:10196C0000180040000401400040014000200040ED
:10197C00001C004008B5431C014616D0294B984268
:10198C003ED01ED8A3F5406398423BD010D8A3F5A7
:10199C000063984238D003F58063984236D0B0F19A
:1019AC00804F35D02048FFF731FE6FF00D0008BD99
:1019BC001E4B98422ED003F580639842F2D137200B
:1019CC00F5E71B4B98420CD00DD8A3F56443984215
:1019DC0022D003F56043984220D0A3F5644398428B
:1019EC00E0D12C20E3E7134B984217D003F580632A
:1019FC00984215D0A3F500639842D3D11820D6E7AE
:101A0C002B20D4E73220D2E71D20D0E71E20CEE7D2
:101A1C001C20CCE73620CAE72D20C8E71920C6E7E2
:101A2C001A20C4E70018004048320008001000409B
:101A3C00000401400044014008B5431C014616D087
:101A4C002B4B98423ED022D8A3F5805398423BD0E2
:101A5C0010D8A3F50063984238D003F58063984200
:101A6C0036D0B0F1804F35D02248FFF7CFFD6FF064
:101A7C000D0008BD204B98422ED003F58063984290
:101A8C002CD0A3F500639842EED13620F1E71B4B26
:101A9C00984225D00DD8A3F58043984222D003F567
:101AAC008063984220D0A3F564439842DCD12D206A
:101ABC00DFE7134B984219D003F580639842D3D1DA
:101ACC001A20D6E72C20D4E73220D2E71D20D0E70D
:101ADC001E20CEE71C20CCE73720CAE72B20C8E716
:101AEC001820C6E71B20C4E72E20C2E71920C0E748
:101AFC00001C004048320008001400400040014027
:101B0C000044014038B50446FFF7AAFD0068FFF712
:101B1C0031FFD4E91012FEF745FC2068FFF72AFFCD
:101B2C00FEF772FC2068FFF787FF05462068FFF779
:101B3C0021FF85420DD02068FFF77EFFD4E91012FB
:101B4C00FEF730FC2068FFF777FFBDE83840FEF762
:101B5C005BBC38BD2DE9F04788B004468946B0F926
:101B6C004C009249DDF840A090461F46FFF70AFD55
:101B7C008F490546B4F94E00FFF704FD0646002DCB
:101B8C0000F01081B4F94E30013302D0002800F07F
:101B9C00098131462846FFF71EFD2060002800F021
:101BAC000181844B98423BD103F594335A6A42F03D
:101BBC0010025A625A6A22F010025A6200220092F3
:101BCC005A6C42F010025A645B6C03F010030093E1
:101BDC00009B2523A4F850307449B4F94C00FFF74E
:101BEC00B1FC26B17249B4F94E00FFF7ABFC94F886
:101BFC005120714B6761201D43F8220023680C2291
:101C0C00C4E901390023C4E9038AC4E90623236229
:101C1C00002E40F0C28008B0BDE8F047FFF745B990
:101C2C00664B984217D103F5FA331A6A42F4003224
:101C3C001A621A6A22F400321A62002201921A6C99
:101C4C0042F400321A641B6C03F400330193019BC1
:101C5C004FF49373BEE75A4B984217D103F5F83300
:101C6C001A6A42F480221A621A6A22F480221A62D8
:101C7C00002202921A6C42F480221A641B6C03F448
:101C8C0080230293029B40F22723A3E74D4B9842FB
:101C9C0017D103F5F6331A6A42F400221A621A6A53
:101CAC0022F400221A62002203921A6C42F40022DF
:101CBC001A641B6C03F400230393039B4FF44D73C2
:101CCC0088E7414B984217D103F5F4331A6A42F472
:101CDC0080121A621A6A22F480121A62002204928A
:101CEC001A6C42F480121A641B6C03F48013049374
:101CFC00049B40F235436DE7344B984217D103F502
:101D0C0092335A6A42F020025A625A6A22F0200236
:101D1C005A62002205925A6C42F020025A645B6CA3
:101D2C0003F020030593059B40F2475352E7284BE1
:101D3C00984217D103F5E0331A6A42F080421A62D6
:101D4C001A6A22F080421A62002206921A6C42F041
:101D5C0080421A641B6C03F080430693069B40F28E
:101D6C00526337E71B4B98427FF436AF1A4D2B6A00
:101D7C0043F000432B622B6A23F000432B620023B9
:101D8C0007932B6C43F000432B642B6C03F0004344
:101D9C000793079B40F253731CE708B0BDE8F0476C
:101DAC00FFF755B808B0BDE8F08700BFE83400086D
:101DBC005834000800100140E400002000440040AA
:101DCC0000480040004C004000500040001401400E
:101DDC0000780040007C00400038024008B1FFF75A
:101DEC00B9BE704708B5074B90F8512053F8220044
:101DFC00FFF7EAF900F02200A0F122035842584103
:101E0C0008BD00BFE400002008B5074B90F8512036
:101E1C0053F82200FFF7D8F900F02100A0F12103BC
:101E2C005842584108BD00BFE400002070B50E4672
:101E3C00054610B94FF0FF3070BDFFF7D3FF0446D5
:101E4C000028F7D12946012211F8523F337095F83A
:101E5C005100034B53F82000FFF778F82046EBE7CE
:101E6C00E400002070B50E460446F0B1FFF7BAFF4F
:101E7C000546D0B994F950006664FEF7D3FA94F88D
:101E8C0051000A4B04F1520153F820000122FFF7D4
:101E9C005DF894F950002A460121FEF783FA94F973
:101EAC005000BDE87040FEF7AFBA70BDE4000020F2
:101EBC0010B50446E8B1816490F95000FEF7B2FA0F
:101ECC00A36DB4F8621094F8510013FA81F1094B28
:101EDC00012253F82000FFF71AF894F95000002261
:101EEC000121FEF75FFA94F95000BDE81040FEF7AF
:101EFC008BBA10BDE400002050B1B0F94E30013364
:101F0C0006D190F85120034B53F82200FFF72CB95F
:101F1C00704700BFE400002050B1B0F94E300133DF
:101F2C0006D190F85120034B53F82200FFF734B937
:101F3C00704700BFE4000020036C0438184710B54C
:101F4C00436C04460438984701300AD0B4F85E104C
:101F5C00636D20460122BDE8104013FA81F1FEF7B3
:101F6C00D6BF10BD1FB503680446186810F00100F9
:101F7C0013D0002200921A6800925B680093009BB9
:101F8C00201FFFF72FFF40BB012204F14E0120461A
:101F9C0004B0BDE81040FEF7D9BF196811F002017A
:101FAC0006D001901A6801925B680193019BE7E7E8
:101FBC001A6812F0040206D002911A6802925B6849
:101FCC000293029BDCE719680907D9D503921A68BA
:101FDC0003925B680393039BD2E704B010BD00002F
:101FEC0008B52520FEF748FA024B1868BDE80840F2
:101FFC00FFF70EB8E400002008B52620FEF73CFAE7
:10200C00024B5868BDE80840FFF702B8E400002016
:10201C0008B52720FEF730FA034B986818B1BDE8D5
:10202C000840FEF7F5BF08BDE400002008B53420D9
:10203C00FEF722FA024BD868BDE80840FEF7E8BF6D
:10204C00E400002008B53520FEF716FA024B18699B
:10205C00BDE80840FEF7DCBFE400002008B54720CF
:10206C00FEF70AFA024B5869BDE80840FEF7D0BFEC
:10207C00E400002008B55220FEF7FEF9024B9869E7
:10208C00BDE80840FEF7C4BFE400002008B55320AB
:10209C00FEF7F2F9024BD869BDE80840FEF7B8BF6D
:1020AC00E40000200268094B9A420DD103F5E2339B
:1020BC001A6A42F000521A621A6A22F000521A622C
:1020CC001A6C22F000521A64704700BF0074004072
:1020DC0010B50C4986B00446FFF754FA019078B15C
:1020EC0008492046FFF772FAC0F3C43002280CBF2F
:1020FC001021002101A8FEF7E2F901A8FEF7D1F9A1
:10210C0006B010BD6032000873B51549154C064673
:10211C00FFF738FA00F022FB54F82030054673B96B
:10212C000F493046FFF72EFA0190A82000F04AFD27
:10213C000199064600F092FB54F825301E6054F8C5
:10214C0025301C684CB1204600F068FBA8212046C5
:10215C0002B0BDE8704000F037BD02B070BD00BFEA
:10216C008432000844030020836810B5044613B180
:10217C00032201469847204610BD00000023012889
:10218C0003F1010202D040081346F8E71421DBB238
:10219C004B43044A181D1044816811B11A44136949
:1021AC0018477047040100200120FEF7A7B9022050
:1021BC00FEF7A4B90420FEF7A1B90820FEF79EB9DA
:1021CC001020FEF79BB938B505242025A8B2FEF7E0
:1021DC0095F9013C4FEA4505F8D138BD38B50624D0
:1021EC004FF48065A8B2FEF789F9013C4FEA45052A
:1021FC00F8D138BD204B07211975082183F8281018
:10220C00092183F83C100A21062283F8501017216B
:10221C001A7083F86410002283F8781083F88C10FD
:10222C0083F8A01083F8B4102821DA601A625A637C
:10223C009A64DA651A67C3F88420C3F89820C3F847
:10224C00AC20C3F8C02083F8C810C3F8D42083F89E
:10225C00DC10C3F8E82083F8F010C3F8FC2083F8F6
:10226C000411C3F8102183F81811C3F8242183F842
:10227C002C11C3F8382170470401002038B5054CE7
:10228C00A4F5A075143C201DFFF76EFFAC42F9D1EC
:10229C0038BD00BF4402002030B595B000241E4B61
:1022AC0001941A6C42F080521A641B6C03F0805338
:1022BC000193019B194B02941A6842F440421A6034
:1022CC001B6803F4404302930122029B4FF4A023AA
:1022DC00CDE9082302254FF480030821CDE90E53E4
:1022EC004FF4A873CDE9101308A807231393129584
:1022FC00FEF74CF9FEF70EF90F23CDE903354FF439
:10230C00A0504FF48053CDE90603052103A8059492
:10231C00FEF712FB15B030BD0038024000700040D3
:10232C00DFF834D0002103E00C4B5B5843500431F0
:10233C000B480C4B42189A42F6D30B4A02E000238E
:10234C0042F8043B094B9A42F9D3FFF761F900F0CC
:10235C004FFC00F02DFC70470000032034380008BF
:10236C0000000020A0000020A0000020C4030020DA
:10237C00FEE700005F282DE9F0410E4647D8254BBB
:10238C0033F91040621C42D0234DC4F3031704F000
:10239C000F0855F8273023FA08F3DB0710D51F492F
:1023AC002046FFF727F890B12046FFF791FE012356
:1023BC0003FA08F255F8273023EA020345F82730D0
:1023CC00052E1ED8DFE806F00D191315171B14493E
:1023DC002046FFF70FF80028E9D02046FFF794FEBF
:1023EC00E5E700212046BDE8F041FFF713B81021C6
:1023FC00F8E72021F6E70321F4E70121F2E70921B0
:10240C00F0E7BDE8F04107484921FFF7FFB8BDE808
:10241C00F08100BF843500087C0300206032000886
:10242C0084320008443600085F289ABF0C4B33F9FD
:10243C0010304FF0FF33C3F303120A2A98BF094838
:10244C0003F00F0398BF50F82220074888BF0022E2
:10245C0050F8233009B1936170471B04FBE700BFB0
:10246C00843500080C000020F0310008FEF76ABF2C
:10247C0038B5044648B1FEF765FF054600F0A8FBE9
:10248C00FEF760FF431BA342F8D338BDB0F86230AF
:10249C00013303F03F03A0F86230B0F86230B0F8BB
:1024AC005E009BB298424FF0FF3018BF002070477F
:1024BC00B0F8F430B0F8F000181A00F03F00704794
:1024CC00B0F8F430B0F8F0209BB293421ABFD0F8B9
:1024DC00E830985C4FF0FF30704713B50DF10701F1
:1024EC000446FFF7A3FC90B9B4F86030B4F85C2054
:1024FC00013303F03F03934209D0B4F86020616DBF
:10250C009DF8070092B29BB28854A4F8603002B0D8
:10251C0010BD0000012370B50374B0F9E230013333
:10252C0004460E4600F1940508D190F8F8302BB112
:10253C00002380F8F8302846FFF7DEFCB4F8F210E0
:10254C004B1C03F03F03B4F8F62092B29342FAD03E
:10255C00D4F8EC2028465654A4F8F230FFF754FC7B
:10256C0018B903492846FFF7A3FC012070BD00BF32
:10257C0099240008037C33B1B0F8F220B0F8F6309F
:10258C009BB29A42FAD1704700F11103914208BFF5
:10259C004FF0FF31A0F8E020C0F8E83000F1510214
:1025AC000023A0F8F430C0E93B23A0F8E210A0F817
:1025BC00F630704770B54FF47A7316460022C0E9B6
:1025CC000123174B03604FF6FF73A0F8E230154B55
:1025DC00984204460D4616D1134BB3F89820A0F838
:1025EC00E220B3F89A30A0F8E030012E04BF4FF689
:1025FC00FF73A4F8E2302046B4F9E020B4F9E210FD
:10260C00FFF7C2FF70BD09492846FEF7CDFF084908
:10261C00A4F8E2002846FEF7C7FFA4F8E000E4E7C0
:10262C00283700084402002084350008583400087C
:10263C00E8340008B0F9E230013310B504460ED18D
:10264C0003685B69984794F8F83043B9012384F820
:10265C00F83004F19400BDE81040FFF75DBC10BDEC
:10266C0002F00703023BDBB2042B2DE9F7430E46C5
:10267C00C0F8FC1098BF1F4980F8F92098BFCC5CBB
:10268C0002F0300388BF0024302B054626D10134DC
:10269C004FF4C06712F0080F14BF4FF400594FF0FD
:1026AC000009082C21D0092C21D013484FF4C171FA
:1026BC00FEF7ACFF05F1940831463B4622464046F6
:1026CC00CDF80090FFF78AFB2846FFF7B3FF0B49C4
:1026DC00404603B0BDE8F043FFF7C4BB12F020073F
:1026EC001CBF01344FF48067D4E70024E2E74FF4B9
:1026FC008054DFE718370008AD360008E7240008DF
:10270C0010B50446FFF796FFB4F8F420B4F8F03097
:10271C0092B29A421FBFD4F8E820D05C013303F088
:10272C003F0314BFA4F8F0304FF0FF3010BD000091
:10273C00024903480022FFF73DBF00BF004800409C
:10274C0044020020836810B504462BB103220146D5
:10275C0098470023C4E90233204610BD264A904214
:10276C0003462ED0B0F1804F2DD0A2F57C42904282
:10277C002BD002F58062904229D002F58062904203
:10278C0027D04FF6FF701D4A934224D01C4A934227
:10279C0023D01C4A934222D002F57052934220D08F
:1027AC00194A93421FD0194A93421ED0184A934299
:1027BC001DD0184A93421CD0174A934208BF0D20D3
:1027CC0070470020DFE70120DDE70220DEE7032071
:1027DC00DFE70420E4E70520E5E70620E6E707202D
:1027EC00E7E70820E8E7092070470A2070470B202C
:1027FC0070470C20704700BF0000014000100040E3
:10280C000014004000040140004401400048014015
:10281C0000180040001C004000200040014670B52C
:10282C00044651F8100FFFF799FF05460846FFF7CD
:10283C000FF8094A002342F8253004F15806E360EA
:10284C0004F1A805B54204D0103D2846FFF78CFCD6
:10285C00F8E7204670BD00BF44030020F8B5002304
:10286C0003660367C0F88030C0F89030C0F8A03021
:10287C00044608460D46FFF771FF4FF6FF7398426A
:10288C00064603D11E482F21FEF7C0FE1D4A2561C6
:10289C0004F10C0342F8263000230E2204F110063A
:1028AC00C4E90C33C4E90E33C4E91033C4E914236E
:1028BC0084F82C30A36484F84C3084F84D30E460F8
:1028CC003046FEF7CDFE04F1580504F1A807284662
:1028DC001035FFF737FFBD42F9D100234FF6FF72D9
:1028EC00C4E90033C4E90632C4E90833A360636168
:1028FC008023A3623046FEF711FA2046F8BD00BFD4
:10290C00483700084403002010B5074C206810B16C
:10291C000430FEF7FAF8606A20B1BDE810400430CC
:10292C00FEF7F3B810BD00BF44030020034B18683A
:10293C0010B10430FEF7E9B8704700BF4403002023
:10294C00034B586810B10430FEF7DFB8704700BF76
:10295C0044030020034B986810B10430FEF7D5B83F
:10296C00704700BF44030020034BD86810B10430FB
:10297C00FEF7CBB8704700BF44030020034B186927
:10298C0010B10430FEF7C1B8704700BF44030020FB
:10299C00034B586910B10430FEF7B7B8704700BF4D
:1029AC0044030020034B986910B10430FEF7ADB816
:1029BC00704700BF44030020034BD86910B10430AA
:1029CC00FEF7A3B8704700BF44030020FFF7F4BF25
:1029DC00034B186A10B10430FEF797B8704700BF6C
:1029EC0044030020034B986A10B10430FEF78DB8F5
:1029FC00704700BF44030020034BD86A10B1043069
:102A0C00FEF783B8704700BF44030020034B586B9C
:102A1C0010B10430FEF779B8704700BF44030020B2
:102A2C00826810B50AB900F041FBBDE81040C368DC
:102A3C001847000010B5044620B9074840F226415B
:102A4C00FEF7E4FD2046FEF709FE0068036E13B1A5
:102A5C005830FFF7E5FF10BD48370008FFF7EABF15
:102A6C0038B5054620B9114840F23941FEF7CEFD84
:102A7C002B7F013B072B11D8DFE803F01504101155
:102A8C001010101302242846FEF7E8FD24010068FC
:102A9C005834204483680BB1FFF7C2FF38BD0324C0
:102AAC00F1E70424EFE70124EDE700BF4837000805
:102ABC00FFF7D6BFFFF7D4BFF8B505460E4617464D
:102ACC000024BC4207D02B68315D1B682846984710
:102ADC0008B10134F5E72046F8BD13B504460846A5
:102AEC0059B10191FDF75CFB236801995B680246C3
:102AFC00204602B0BDE81040184702B010BD0000DF
:102B0C0008B50249FFF7E9FF08BD00BF793100089D
:102B1C0038B50546FFF7E1FF04462846FFF7F0FFFE
:102B2C00204438BD10B50446FFF7A0FCE0602368D4
:102B3C002046DB689847002808DAFFF797FCE36823
:102B4C00C01AA3689842F2D34FF0FF3010BDF8B50D
:102B5C0006460D4617460024BC4207D03046FFF708
:102B6C00E1FF031E02DB2B550134F5E72046F8BDCF
:102B7C002DE9F0410746884616461D4673B10024E0
:102B8C003846FFF7CFFF031E05DB434503D0335513
:102B9C000134A542F4D12046BDE8F0811C46FAE789
:102BAC0008B50320FDF7ECFBBDE8084000F00EB8BB
:102BBC0008B5AFF30080FDF735FBFDF743FB00F0E4
:102BCC0009F8FAE700F038B800F03EB8FEF7E2BBBF
:102BDC007047000008B5044B2BB10448FFF768FCA4
:102BEC0008B1AFF3008008BD0000000044020020D3
:102BFC0070B50D4D0D4C641BA4100026A64209D1D6
:102C0C000B4D0C4C00F0A0FA641BA4100026A6423D
:102C1C0005D170BD55F8043B98470136EEE755F8E1
:102C2C00043B98470136F2E71C3800081C380008B2
:102C3C001C3800082C380008024B0146186800F0BC
:102C4C005BB800BF3C000020024B0146186800F046
:102C5C0003B800BF3C00002037B5002948D051F81C
:102C6C00043C0190002BA1F10404B8BFE41800F05F
:102C7C00AFF8204A01981368154633B963601460A5
:102C8C0003B0BDE8304000F0A9B8A3420BD92168CD
:102C9C006218934204BF1A685B68636004BF5218E1
:102CAC0022602C60ECE71A465B680BB1A342FAD9A0
:102CBC0011685518A5420BD1246821445418A3421D
:102CCC001160DDD11C685B68536021441160D7E74B
:102CDC0002D90C230360D3E7256861198B4204BF2A
:102CEC0019685B68636004BF491921605460C7E7C9
:102CFC0003B030BDA8030020F8B5CD1C25F00305AA
:102D0C0008350C2D38BF0C25002D064601DBA942D9
:102D1C0003D90C2333600020F8BD00F059F8214989
:102D2C000A6814469CB9204F3B6823B921463046AB
:102D3C0000F03CF838602946304600F037F8431C68
:102D4C0023D10C233360304600F048F8E3E72368C6
:102D5C005B1B17D40B2B03D923601C44256004E0A8
:102D6C006368A2420CBF0B605360304600F036F82B
:102D7C0004F10B00231D20F00700C21ACCD01B1A43
:102D8C00A350C9E722466468CCE7C41C24F00304B2
:102D9C00A042E3D0211A304600F008F80130DDD112
:102DAC00CFE700BFA8030020AC03002038B5064DC8
:102DBC000023044608462B60FDF766FA431C02D13B
:102DCC002B6803B1236038BDB403002070477047F3
:102DDC000148FFF7FBBF00BFBC0300200148FFF711
:102DEC00F6BF00BFBC0300202DE9F047089D044648
:102DFC008C46002B40F083808A42174647D9B2FAA2
:102E0C0082F242B1C2F1200024FA00F091409740C6
:102E1C0040EA010C94404FEA1748230CBCFBF8F62F
:102E2C001FFA87FE08FB16C143EA014306FB0EF1AD
:102E3C00994209D9FB1806F1FF3080F019819942AB
:102E4C0040F21681023E3B445B1AA4B2B3FBF8F08D
:102E5C0008FB103344EA034400FB0EFEA64509D9D7
:102E6C003C1900F1FF3380F00581A64540F2028148
:102E7C0002383C4440EA0640A4EB0E0400261DB187
:102E8C00D4400023C5E900433146BDE8F08702B9C0
:102E9C00FFDEB2FA82F2002A50D1CB1B4FEA174E5A
:102EAC001FFA87F80126B3FBFEFC210C0EFB1C332A
:102EBC0041EA034108FB0CF38B4207D979180CF15A
:102ECC00FF3002D28B4200F2E9808446C91AA3B2C9
:102EDC00B1FBFEF00EFB101143EA014408FB00F8B5
:102EEC00A04507D93C1900F1FF3302D2A04500F2EE
:102EFC00D9801846A4EB080440EA0C40BFE78B428B
:102F0C0009D9002D00F0B1800026C5E9000130463A
:102F1C003146BDE8F087B3FA83F6002E4AD18B42D6
:102F2C0002D3824200F2B880841A61EB03010120C3
:102F3C008C46002DA8D0C5E9004CA5E7C2F12003B2
:102F4C0020FA03F6974001FA02F04FEA174ED940E7
:102F5C003043030CB1FBFEF61FFA87F80EFB16117B
:102F6C0043EA014306FB08F1994204FA02F409D939
:102F7C00FB1806F1FF3C80F08D80994240F28A806C
:102F8C00023E3B445B1A81B2B3FBFEF00EFB1033E6
:102F9C0041EA034100FB08F38B4207D9791800F191
:102FAC00FF3C73D28B4271D902383944CB1A40EAB8
:102FBC00064678E7C6F1200C03FA06F422FA0CF365
:102FCC001C4320FA0CF701FA06F34FEA144E21FACF
:102FDC000CF11F433B0CB1FBFEF91FFA84F80EFBFE
:102FEC00191143EA014109FB08FA8A4502FA06F273
:102FFC0000FA06F308D9611809F1FF3048D28A4566
:10300C0046D9A9F102092144A1EB0A01BFB2B1FBD7
:10301C00FEF00EFB101147EA014700FB08F8B8451B
:10302C0007D9E71900F1FF312ED2B8452CD9023857
:10303C00274440EA0940A7EB0807A0FB02894F454B
:10304C00C64649461AD317D05DB1B3EB0E0267EBF7
:10305C00010707FA0CFCF2404CEA0202F740C5E902
:10306C00002700263146BDE8F0872E4628460BE7A0
:10307C000646E9E61846FDE64345E5D2B8EB020EF6
:10308C0069EB04010138DFE70846D2E760468DE7BB
:10309C008146B9E7664675E730464AE7ACF1020C63
:1030AC00394413E702383C4424E700BF08B500F06C
:1030BC0000F808B5062000F02BF80120FDF702F906
:1030CC001F2938B504460D4604D9162303604FF06A
:1030DC00FF3038BD426C12B152F821304BB920464A
:1030EC0000F030F82A4601462046BDE8384000F092
:1030FC0017B8012B0AD0591C03D1162303600120E9
:10310C00E7E7002442F82540284698470020E0E7EE
:10311C00024B01461868FFF7D3BF00BF3C000020EC
:10312C0038B5074D00230446084611462B60FDF7C1
:10313C00CBF8431C02D12B6803B1236038BD00BF10
:10314C00B4030020FDF7C8B8F8B500BFF8BC08BC44
:10315C009E467047F8B500BFF8BC08BC9E46704749
:10316C0048656C6C6F00576F726C6464200D0A00BC
:10317C00433A5C6D73797336345C6F70745C617256
:10318C006475696E6F2D312E382E31335C706F7211
:10319C007461626C655C7061636B616765735C53D1
:1031AC00544D33325C68617264776172655C737420
:1031BC006D33325C312E392E305C6C696272617207
:1031CC006965735C537263577261707065725C737E
:1031DC0072635C73746D33325C70696E6D61702EEA
:1031EC006300000001000000020000000400000069
:1031FC00080000001000000020000000400000004B
:10320C00800000000001000000020000000400002B
:10321C00000800000010000000200000004000002A
:10322C000080000000000000000000000102030408
:10323C0006070809000000000102030454494D3A36
:10324C0020556E6B6E6F776E2074696D65722049B8
:10325C0052516E0004000000007400400380000016
:10326C00050000000074004003000100FFFF000097
:10327C000000000000000000000000000000004002
:10328C001281000003000000000C0040120202003A
:10329C00050000000004014012831000060000002D
:1032AC0000040040128200000700000000200040D3
:1032BC00128900000800000000000140128100008B
:1032CC000F000000000000401281000011000000FF
:1032DC0000040140128311001300000000000040A4
:1032EC0012010100140000000004004012820000D2
:1032FC00150000000004004012020100160000003E
:10330C000008004012820000180000000008004075
:10331C0012820100190000000048014012830000D5
:10332C001A00000000000040128101001B00000088
:10333C0000000040120102001F00000000180040B5
:10334C001209010026000000000400401282000057
:10335C0027000000000400401202010028000000B9
:10336C00000400401282010029000000000400400B
:10337C00120202003C000000000800401282000013
:10338C003D00000000080040120201003E00000059
:10339C0000080040128201003F00000000080040BD
:1033AC0012020200450000000040014012830000A0
:1033BC0046000000004001401203010048000000DC
:1033CC000000014012811000490000000000014083
:1033DC00128100004A00000000000140120111009F
:1033EC004B00000000000140120101004C000000E5
:1033FC0000000140128111004D000000000001404E
:10340C00128101004E000000000001401201020078
:10341C0056000000004401401283000057000000D9
:10342C00004801401283000058000000001C0040BE
:10343C001289000059000000002000401289000091
:10344C00FFFF00000000000000000000030000006F
:10345C0000440040120700001B0000000048004020
:10346C0012070000270000000014014012080000A1
:10347C002B000000004C004012080000320000003D
:10348C0000500040120800003600000000440040CC
:10349C00120700003900000000480040120700002D
:1034AC0040000000007C00401208000047000000B3
:1034BC000078004012080000560000000078004020
:1034CC0012080000690000000014014012080000FE
:1034DC00FFFF0000000000000000000000000000E2
:1034EC00004C0040120800001600000000100140C3
:1034FC00120700001A0000000048004012070000EC
:10350C002600000000140140120800002A000000F0
:10351C0000480040120700002C0000000050004042
:10352C0012080000350000000044004012070000A3
:10353C003800000000480040120700004100000065
:10354C00007C004012080000480000000078004099
:10355C00120800005700000000780040120800001C
:10356C006E0000000014014012080000FFFF000074
:10357C00000000000000000069006E005F004D00BC
:10358C005E004B0049005D005C003F003E00070000
:10359C00060005001900180026001F001D001C0065
:1035AC000F00270015001300040014001600120071
:1035BC003D003C003B0042000000100040001B009E
:1035CC001A004F004E004C004A00470048002800EB
:1035DC0029002A002B002C00320062006300370007
:1035EC0036003500340033004200440045004600EC
:1035FC004300580057005900610060003100300052
:10360C005000510052000700FFFF17001E002D0054
:10361C0039003800030020002300530055005A00E5
:10362C00110022005400560007000600050004009B
:10363C000000580057005900433A5C6D737973369B
:10364C00345C6F70745C61726475696E6F2D312EB1
:10365C00382E31335C706F727461626C655C7061B2
:10366C00636B616765735C53544D33325C68617294
:10367C0064776172655C73746D33325C312E392EF4
:10368C00305C636F7265735C61726475696E6F5CDC
:10369C00776972696E675F6469676974616C2E63C0
:1036AC0000433A5C6D73797336345C6F70745C6193
:1036BC00726475696E6F2D312E382E31335C706FDC
:1036CC00727461626C655C7061636B616765735C7D
:1036DC0053544D33325C68617264776172655C730C
:1036EC00746D33325C312E392E305C636F726573BE
:1036FC005C61726475696E6F5C486172647761724B
:10370C006553657269616C2E63707000060007006A
:10371C000800000000000000000000002125000847
:10372C00C52A0008BD2400080D270008CD24000878
:10373C00812500085B2B00087D2B0008433A5C6D4B
:10374C0073797336345C6F70745C61726475696E16
:10375C006F2D312E382E31335C706F727461626C48
:10376C00655C7061636B616765735C53544D333298
:10377C005C68617264776172655C73746D33325C22
:10378C00312E392E305C636F7265735C61726475B7
:10379C00696E6F5C486172647761726554696D65BE
:1037AC00722E63707000000000000000000000002A
:1037BC0000000000000000000000000000000000FD
:1037CC0000000000000000000000000000000000ED
:1037DC0000000000000000000000000000000000DD
:1037EC0000000000000000000000000000000000CD
:1037FC0000000000000000000000000000000000BD
:08380C000000000000000000B4
:08381400E0F5FF7F0100000058
:10381C00AD2B000815020008012200083D27000806
:08382C00F101000889220008E7
:10383400C803002001000000100000000000024046
:103844000004024000080240000C02400010024044
:103854000014024000180240001C024000200240F4
:1038640000240240002802400024F400400000200C
:1038740000000000D4370008F4370008B43700080B
:103884000000000000000000000000000000000034
:103894000000000000000000000000000000000024
:1038A4000000000000000000000000000000000014
:1038B4000000000000000000000000000000000004
:1038C40000000000000000000000000000000000F4
:040000050800232D9F
:00000001FF
